:1000000014C1000040C100003EC100003CC100001E
:100010003AC1000038C1000036C1000034C1000000
:1000200032C1000030C100002EC100002CC1000010
:100030002AC1000028C1000026C1000024C1000020
:1000400022C1000020C100001EC100001CC1000030
:100050001AC1000018C1000016C100009BC40000B6
:1000600012C10000D5C2000009C300000CC100008D
:100070000AC1000008C1000006C1000004C1000060
:1000800002C1000000C10000FEC00000FCC0000072
:10009000FAC00000F8C00000F6C00000F4C0000084
:1000A000F2C00000F0C00000EEC00000ECC0000094
:1000B000EAC00000E8C00000E6C00000E4C00000A4
:1000C000E2C00000E0C00000DEC00000DCC00000B4
:1000D000DAC00000D8C00000D6C00000D4C00000C4
:1000E000D2C00000D605D905C805CC05D20510063A
:1000F000DD05E105E705EB05EF05F505F905FD056E
:100100001006030607060B0600000A0B02090C0D79
:100110000E080703040100000000000000000000BA
:1001200000000000000000000000000000000000CF
:10013000000000001211100000000000000000008C
:1001400000000000000000000000000000000102AC
:1001500010202008081020401020408002010201D9
:100160000804020101020408102040808040201091
:1001700008040201800402018040201008040201EA
:100180000804020101020408102040800102040852
:10019000102040800505050507050808080802022B
:1001A00002020A0A08080404040401010101010111
:1001B00001010303030303030303040707070C0CF4
:1001C0000C0C0C0C0C0C02020202060606060606BB
:1001D00006060B0B0B0B0B0B0B0B00002000230078
:1001E000260029002C002F0032000001000003012E
:1001F0000601090100002200250028002B002E0026
:100200003100340002010000050108010B0100006B
:100210002100240027002A002D00300033000101B6
:100220000000040107010A01700311241FBECFEF73
:10023000D1E2DEBFCDBF00E00CBF12E0A0E0B2E033
:10024000ECEAFDE000E00BBF02C007900D92A23483
:10025000B107D9F722E0A2E4B2E001C01D92A83EA6
:10026000B207E1F712E0CAE2D2E000E005C022974F
:100270000109FE010BBF94D5C832D10780E0080701
:10028000B1F77ED391C5BCCE26E040E052EC61E0F0
:1002900070E082E492E05CD160E072E082E492E09F
:1002A000AAD262E08BE3BDD461E08FE3BAD461E00F
:1002B0008FE3F0C48BE323D5892B09F035C060E0D0
:1002C0008FE3E8D48BE31BD54AE050E0BC0182E425
:1002D00092E03FD368EB7BE080E090E0C8D38BE313
:1002E0000ED54AE050E0BC0182E492E032D361E0F6
:1002F0008FE3D0D48BE303D54AE050E0BC0182E425
:1003000092E027D368EB7BE080E090E0B0D38BE312
:10031000F6D44AE050E0BC0182E492E01AD366E0F1
:1003200072E082E492E067D26AE070E080E090E000
:100330009EC3FC01818D228D90E0805C9F4F821BCB
:1003400091098F7399270895FC01918D828D9817DB
:1003500031F0828DE80FF11D858D90E008958FEFCB
:100360009FEF0895FC01918D828D981761F0828D29
:10037000DF01A80FB11D5D968C91928D9F5F9F73D9
:10038000928F90E008958FEF9FEF089587E693E0B6
:10039000892B39F080E090E0892B19F098D18111F8
:1003A00025C080E090E0892B41F080E090E0892B2F
:1003B00021F00E94000081111CC080E090E0892B98
:1003C00041F080E090E0892B21F00E940000811133
:1003D00013C080E090E0892BA1F080E090E0892BB1
:1003E00081F00E94000081110AC008950E9400005F
:1003F000D8CF0E940000E1CF0E940000EACF0C9409
:1004000000000895FC01848DDF01A80FB11DA35ADF
:10041000BF4F2C91848D90E001968F739927848F24
:10042000A689B7892C93A089B1898C9180648C931B
:10043000938D848D981306C00288F389E02D808106
:100440008F7D80830895CF93DF93EC01888D88237F
:10045000C1F0EA89FB89808185FD05C0A889B98939
:100460008C9186FD0EC00FB607FCF5CF808185FF0D
:10047000F2CFA889B9898C9185FFEDCFCE01C2DF7B
:10048000E8CFDF91CF910895CF92DF92FF920F9343
:100490001F93CF93DF931F92CDB7DEB76C0181E03E
:1004A000D60158968C9358975B969C915B975C9677
:1004B0008C915C97981307C05096ED91FC915197E1
:1004C000808185FD2DC0F601038D10E00F5F1F4F69
:1004D0000F731127F02EF601848DF81210C00FB69D
:1004E00007FCF9CFD6015096ED91FC915197808190
:1004F00085FFF1CFC601698385DF6981ECCF838DEC
:10050000E80FF11DE35AFF4F6083D6015B960C9311
:100510005B975296ED91FC915397808180620CC05D
:10052000D6015696ED91FC91579760835096ED91C8
:10053000FC91519780818064808381E090E00F90EE
:10054000DF91CF911F910F91FF90DF90CF90089591
:10055000BF92CF92DF92EF92FF92CF93DF93EC01A5
:100560006A017B01B22EE889F98982E08083411516
:1005700081EE58076105710599F060E079E08DE33F
:1005800090E0A7019601E4D32150310941095109B6
:100590005695479537952795211580E1380790F0B6
:1005A000E889F989108260E874E88EE190E0A7019B
:1005B0009601CED3215031094109510956954795ED
:1005C00037952795EC85FD853083EE85FF85208363
:1005D000188EEC89FD89B082EA89FB89808180616F
:1005E0008083EA89FB89808188608083EA89FB892E
:1005F000808180688083EA89FB8980818F7D808308
:10060000DF91CF91FF90EF90DF90CF90BF90089552
:100610001F920F920FB60F9211240BB60F922F93C9
:100620008F939F93EF93FF93E0915202F0915302C7
:100630008081E0915802F091590282FD12C09081B0
:1006400080915B028F5F8F7320915C02821751F063
:10065000E0915B02F0E0EE5BFD4F958F80935B02D3
:1006600001C08081FF91EF919F918F912F910F9009
:100670000BBE0F900FBE0F901F9018951F920F92F8
:100680000FB60F9211240BB60F922F933F934F93F7
:100690005F936F937F938F939F93AF93BF93EF93EA
:1006A000FF9382E492E0AEDEFF91EF91BF91AF91B4
:1006B0009F918F917F916F915F914F913F912F917A
:1006C0000F900BBE0F900FBE0F901F90189582E4F5
:1006D00092E02FDE21E0892B09F420E0822F08959B
:1006E000109245021092440288EE93E0A0E0B0E040
:1006F0008093460290934702A0934802B093490228
:1007000084E292E0909343028093420285EC90E071
:1007100090934F0280934E0284EC90E090935102AC
:100720008093500280EC90E09093530280935202A9
:1007300081EC90E0909355028093540282EC90E01B
:10074000909357028093560286EC90E09093590262
:100750008093580210925B0210925C0210925D022C
:1007600010925E020895CF92DF92EF92FF920F9364
:100770001F93CF93DF936C017A01EB01E60EF71E16
:1007800000E010E0CE15DF0561F06991D601ED9132
:10079000FC910190F081E02DC6011995080F191FF9
:1007A000F1CFC801DF91CF911F910F91FF90EF9092
:1007B000DF90CF9008956115710581F0DB010D90F8
:1007C0000020E9F7AD0141505109461B570BDC01F0
:1007D000ED91FC910280F381E02D199480E090E08E
:1007E0000895DC01ED91FC910190F081E02D1994C8
:1007F00060E372E0E0CF0F931F93CF93DF93EC01A0
:10080000DADF8C01CE01F4DF800F911FDF91CF91F1
:100810001F910F9108958F929F92AF92BF92CF92A6
:10082000DF92EF92FF920F931F93CF93DF93CDB799
:10083000DEB7A1970FB6F894DEBF0FBECDBF7C0127
:10084000C42EE52FCB01D22E19A221E02D1510F0D8
:100850002AE0D22E8E010F5D1F4F8D2C912CA12CE2
:10086000B12C6C2D7E2FA501940172D28C2DD29EBD
:1008700080191124015011098A3014F4805D01C0DF
:10088000895CF8018083211531054105510521F06E
:10089000C22EE32FCA01E5CFB801C7018CDFA196B4
:1008A0000FB6F894DEBF0FBECDBFDF91CF911F9181
:1008B0000F91FF90EF90DF90CF90BF90AF909F90FF
:1008C0008F900895CF92DF92EF92FF920F931F9334
:1008D000CF93DF93EC016A017B012115310579F497
:1008E000E881F9810190F081E02D642FDF91CF91B3
:1008F0001F910F91FF90EF90DF90CF9019942A30C5
:100900003105D9F477FF18C06DE26BDF8C01442705
:100910005527BA014C195D096E097F092AE0CE01FD
:100920007ADF800F911FDF91CF911F910F91FF9080
:10093000EF90DF90CF9008952AE0B701A601CE0195
:10094000DF91CF911F910F91FF90EF90DF90CF90AB
:1009500062CF0F931F93CF93DF93EC019A01AB010A
:10096000662757FD6095762FADDF8C01CE0140DF05
:10097000800F911FDF91CF911F910F9108950895DE
:100980009BD0FDDF81DCC6ECD1E094DC2097E9F35D
:10099000FDDCFBCF1F920F920FB60F9211242F9305
:1009A0003F938F939F93AF93BF938091E002909179
:1009B000E102A091E202B091E3023091DF0223E074
:1009C000230F2D3720F40196A11DB11D05C026E887
:1009D000230F0296A11DB11D2093DF028093E00238
:1009E0009093E102A093E202B093E3028091E402CB
:1009F0009091E502A091E602B091E7020196A11D57
:100A0000B11D8093E4029093E502A093E602B093B7
:100A1000E702BF91AF919F918F913F912F910F90DE
:100A20000FBE0F901F9018953FB7F8948091E40285
:100A30009091E502A091E602B091E70226B5A89B4D
:100A400005C02F3F19F00196A11DB11D3FBF6627BC
:100A5000782F892F9A2F620F711D811D911D42E001
:100A6000660F771F881F991F4A95D1F70895CF9277
:100A7000DF92EF92FF92CF93DF936B017C01D4DF83
:100A8000EB01C114D104E104F10479F060D1CCDFB1
:100A90006C1B7D0B683E7340A0F381E0C81AD1083F
:100AA000E108F108C851DC4FECCFDF91CF91FF9006
:100AB000EF90DF90CF900895789484B5826084BDE4
:100AC00084B5816084BD85B5826085BD85B5816052
:100AD00085BDEEE6F0E0808181608083E1E8F0E0B2
:100AE0001082808182608083808181608083E0E8E1
:100AF000F0E0808181608083E1EBF0E080818460C0
:100B00008083E0EBF0E0808181608083E1E9F0E0C8
:100B1000808182608083808181608083E0E9F0E071
:100B2000808181608083E1EAF0E08081826080835F
:100B3000808181608083E0EAF0E080818160808351
:100B4000E1E2F1E080818260808380818160808346
:100B5000E0E2F1E0808181608083EAE7F0E080817B
:100B600084608083808182608083808181608083D3
:100B70008081806880831092C100089590E0FC011C
:100B80003197E231F10508F04BC0EE58FF4F02C13A
:100B9000809180008F7703C0809180008F7D80934B
:100BA0008000089580918000877FF9CF84B58F778A
:100BB00002C084B58F7D84BD08958091B0008F7789
:100BC00003C08091B0008F7D8093B0000895809124
:100BD00090008F7707C0809190008F7D03C0809137
:100BE0009000877F8093900008958091A0008F7778
:100BF00007C08091A0008F7D03C08091A000877FF7
:100C00008093A0000895809120018F7707C0809184
:100C100020018F7D03C080912001877F8093200178
:100C20000895CF93DF9390E0FC01E25BFE4F2491A7
:100C3000FC01EC56FE4F8491882349F190E0880F27
:100C4000991FFC01E25FFD4FA591B4918C509E4F1E
:100C5000FC01C591D4919FB7611108C0F8948C91A3
:100C6000209582238C93888182230AC0623051F4BC
:100C7000F8948C91322F309583238C938881822B2A
:100C8000888304C0F8948C91822B8C939FBFDF9152
:100C9000CF9108950F931F93CF93DF931F92CDB7FA
:100CA000DEB7282F30E0F901E85FFE4F8491F901AB
:100CB000E25BFE4F1491F901EC56FE4F04910023C4
:100CC000C1F0882319F0698359DF6981E02FF0E0D2
:100CD000EE0FFF1FEC50FE4FA591B4919FB7F89413
:100CE0008C91611103C01095812301C0812B8C93DD
:100CF0009FBF0F90DF91CF911F910F910895CF93D8
:100D0000DF93282F30E0F901E85FFE4F8491F9016D
:100D1000E25BFE4FD491F901EC56FE4FC491CC2317
:100D200089F081112BDFEC2FF0E0EE0FFF1FE65270
:100D3000FE4FA591B4912C912D2381E090E021F4F8
:100D400080E002C080E090E0DF91CF9108950895A7
:100D5000A1E21A2EAA1BBB1BFD010DC0AA1FBB1FBF
:100D6000EE1FFF1FA217B307E407F50720F0A21B31
:100D7000B30BE40BF50B661F771F881F991F1A949E
:100D800069F760957095809590959B01AC01BD01C8
:100D9000CF010895EE0FFF1F0590F491E02D1994F7
:0C0DA0000790F691E02D1994F894FFCF15
:100DAC00424547494E005F2D2D2D2D2D2D2D2D2DDE
:100DBC002D2D2D2D2D2D2D2D2D2D2D2D2D2D2D0084
:100DCC00000000004402B3039901B201A401230204
:100DDC000D0A006E616E00696E66006F7666002EFD
:020DEC00000005
:00000001FF
