:1000000014C1000040C100003EC100003CC100001E
:100010003AC1000038C1000036C1000034C1000000
:1000200032C1000030C100002EC100002CC1000010
:100030002AC1000028C1000026C1000024C1000020
:1000400022C1000020C100001EC100001CC1000030
:100050001AC1000018C1000016C10000DAC3000078
:1000600012C1000049C400001EC400000CC1000001
:100070000AC1000008C1000006C1000004C1000060
:1000800002C1000000C10000FEC00000FCC0000072
:10009000FAC00000F8C00000F6C00000F4C0000084
:1000A000F2C00000F0C00000EEC00000ECC0000094
:1000B000EAC00000E8C00000E6C00000E4C00000A4
:1000C000E2C00000E0C00000DEC00000DCC00000B4
:1000D000DAC00000D8C00000D6C00000D4C00000C4
:1000E000D2C000005E016101500154015A01980123
:1000F000650169016F01730177017D01810185014E
:1001000098018B018F01930100002100240027003A
:100110002A002D0030003300010100000401070116
:100120000A01000020002300260029002C002F00D7
:100130003200000100000301060109010000220055
:10014000250028002B002E003100340002010000A1
:10015000050108010B010505050507050808080844
:10016000020202020A0A080804040404010101014F
:10017000010101010303030303030303040707074A
:100180000C0C0C0C0C0C0C0C0202020206060606EF
:10019000060606060B0B0B0B0B0B0B0B01021020BC
:1001A00020080810204010204080020102010804AD
:1001B0000201010204081020408080402010080441
:1001C000020180040201804020100804020108049A
:1001D00002010102040810204080010204081020DE
:1001E000408000000A0B02090C0D0E0807030401F1
:1001F00000000000000000000000000000000000FF
:1002000000000000000000000000000000001211CB
:1002100010000000000000000000000000000000CE
:100220000000000000000000C00511241FBECFEF39
:10023000D1E2DEBFCDBF00E00CBF12E0A0E0B2E033
:10024000EAE3FCE000E00BBF02C007900D92A6338A
:10025000B107D9F722E0A6E3B2E001C01D92AC3DA0
:10026000B207E1F711E0C5E1D1E000E005C0219758
:100270000109802FFE01D3D4C431D10780E00807E3
:10028000B1F770D3D8C4BCCE90E0FC013197E23115
:10029000F10508F04DC08827EE58FF4F8F4FBFC4BF
:1002A000809180008F7703C0809180008F7D809344
:1002B0008000089580918000877FF9CF84B58F7783
:1002C00002C084B58F7D84BD08958091B0008F7782
:1002D00003C08091B0008F7D8093B000089580911D
:1002E00090008F7707C0809190008F7D03C0809130
:1002F0009000877F8093900008958091A0008F7771
:1003000007C08091A0008F7D03C08091A000877FEF
:100310008093A0000895809120018F7707C080917D
:1003200020018F7D03C080912001877F8093200171
:1003300008951F93CF93DF93E1E2F2E09491EBED08
:10034000F1E0D491E5E9F1E0C491CC23D1F0182F8C
:10035000992311F0892F98DFEC2FF0E0EE0FFF1FAB
:10036000E45CFE4FA591B4918FB7F894111105C0CC
:100370009C91ED2FE095E92302C0EC91ED2BEC93DD
:100380008FBFDF91CF911F910895CF93DF93EDE160
:10039000F2E08491E7EDF1E0D491E1E9F1E0C4917C
:1003A000CC2389F0811170DFEC2FF0E0EE0FFF1FFE
:1003B000EE5DFE4FA591B491EC91ED2381E090E0CC
:1003C00021F480E002C080E090E0DF91CF910895B9
:1003D0003FB7F89480913B0290913C02A0913D027E
:1003E000B0913E0226B5A89B05C02F3F19F001969B
:1003F000A11DB11D3FBFBA2FA92F982F8827820FAB
:10040000911DA11DB11DBC01CD0142E0660F771FFA
:10041000881F991F4A95D1F708958F929F92AF92A6
:10042000BF92CF92DF92EF92FF926B017C01D0DFFF
:100430004B015C01C114D104E104F104E9F0C8DF0F
:10044000DC01CB0188199909AA09BB09883E9340B0
:10045000A105B10578F321E0C21AD108E108F1083D
:1004600088EE880E83E0981EA11CB11CC114D10433
:10047000E104F10421F7DECFFF90EF90DF90CF9001
:10048000BF90AF909F908F900895CF92DF92EF92A0
:10049000FF920F931F93CF93DF936C017A018B012F
:1004A000C0E0D0E0CE15DF0589F0D8016D918D0157
:1004B000D601ED91FC910190F081E02DC6011995D6
:1004C000892B11F47E0102C02196ECCFC701DF9188
:1004D000CF911F910F91FF90EF90DF90CF900895F3
:1004E000089580E090E00895FC01538D448D252F00
:1004F00030E0842F90E0821B930B541710F0CF96BE
:10050000089501970895FC01918D828D981761F0EF
:10051000828DDF01A80FB11D5D968C91928D9F5F3A
:100520009F73928F90E008958FEF9FEF0895FC01E5
:10053000918D828D981731F0828DE80FF11D858D98
:1005400090E008958FEF9FEF0895FC01918D228D2B
:10055000892F90E0805C9F4F821B91098F739927B0
:1005600008958FE392E0F1DF21E0892B09F420E088
:10057000822F0895FC01848DDF01A80FB11DA35ABD
:10058000BF4F2C91848D90E001968F739927848FB3
:10059000A689B7892C93A089B1898C9180648C93AA
:1005A000938D848D981306C00288F389E02D808195
:1005B0008F7D80830895EF92FF920F931F93CF93C7
:1005C000DF93EC0181E0888F9B8D8C8D981305C0A3
:1005D000E889F989808185FD23C0F62E0B8D10E016
:1005E0000F5F1F4F0F731127E02E8C8DE8120BC089
:1005F0000FB607FCFACFE889F989808185FFF5CF2E
:10060000CE01B8DFF2CF8B8DFE01E80FF11DE35A6A
:10061000FF4FF0820B8FEA89FB898081806207C0DF
:10062000EE89FF896083E889F9898081806480830D
:1006300081E090E0DF91CF911F910F91FF90EF90BB
:100640000895CF93DF93EC01888D8823C1F0EA8968
:10065000FB89808185FD05C0A889B9898C9186FDBB
:100660000EC00FB607FCF5CF808185FFF2CFA889B9
:10067000B9898C9185FFEDCFCE017CDFE8CFDF918A
:10068000CF91089580E090E0892B19F06ADF811105
:1006900025C080E090E0892B41F080E090E0892B3C
:1006A00021F00E94000081111CC080E090E0892BA5
:1006B00041F080E090E0892B21F00E940000811140
:1006C00013C080E090E0892BA1F080E090E0892BBE
:1006D00081F00E94000081110AC008950E9400006C
:1006E000D8CF0E940000E1CF0E940000EACF0C9416
:1006F00000000895009761F0FC0101900020E9F7E7
:100700003197AF01481B590BBC018FE392E0BDCE7E
:1007100080E090E008958F929F92AF92BF92CF9227
:10072000DF92EF92FF920F931F93CF93DF93CDB79A
:10073000DEB7A1970FB6F894DEBF0FBECDBF6C0138
:10074000990FEE08FF08F7FE2FC0E0913F02F091ED
:1007500040020190F081E02D6DE28FE392E0199567
:100760008C0122273327A9012C193D094E095F0965
:1007700019A2CE0181967C019AE0892E912CA12CA0
:10078000B12CCA01B901A501940127D2605DF7011E
:1007900062937F01211531054105510591F7CF0184
:1007A000A9DF080F191F1CC0A701960119A28E010D
:1007B0000F5D1F4F8AE0C82ED12CE12CF12CCA010D
:1007C000B901A701960109D2605DF80162938F011A
:1007D000211531054105510591F7CF018BDF8C01C2
:1007E00082E192E087DF800F911FA1960FB6F89407
:1007F000DEBF0FBECDBFDF91CF911F910F91FF9054
:10080000EF90DF90CF90BF90AF909F908F90089522
:100810000ED21F920F920FB60F9211242F933F9377
:100820008F939F93AF93BF9380913702909138023B
:10083000A0913902B0913A023091360223E0230FA1
:100840002D3720F40196A11DB11D05C026E8230F08
:100850000296A11DB11D209336028093370290931A
:100860003802A0933902B0933A0280913B029091F2
:100870003C02A0913D02B0913E020196A11DB11D26
:1008800080933B0290933C02A0933D02B0933E02C2
:10089000BF91AF919F918F913F912F910F900FBE7C
:1008A0000F901F9018951F920F920FB60F92112460
:1008B0000BB60F922F933F934F935F936F937F935A
:1008C0008F939F93AF93BF93EF93FF938FE392E048
:1008D00051DEFF91EF91BF91AF919F918F917F91E9
:1008E0006F915F914F913F912F910F900BBE0F90A1
:1008F0000FBE0F901F9018951F920F920FB60F9278
:1009000011240BB60F922F938F939F93EF93FF9326
:10091000E0914F02F09150028081E0915502F091F8
:10092000560282FD12C09081809158028F5F8F73B2
:1009300020915902821751F0E0915802F0E0E15CF9
:10094000FD4F958F8093580201C08081FF91EF91F8
:100950009F918F912F910F900BBE0F900FBE0F9014
:100960001F901895789484B5826084BD84B58160A9
:1009700084BD85B5826085BD85B5816085BD80916A
:100980006E00816080936E001092810080918100E2
:1009900082608093810080918100816080938100DA
:1009A000809180008160809380008091B10084609C
:1009B0008093B1008091B00081608093B0008091FD
:1009C000910082608093910080919100816080937A
:1009D0009100809190008160809390008091A100AF
:1009E00082608093A1008091A10081608093A1002A
:1009F0008091A00081608093A0008091210182609D
:100A00008093210180912101816080932101809157
:100A1000200181608093200180917A00846080931E
:100A20007A0080917A00826080937A0080917A00C7
:100A3000816080937A0080917A00806880937A0048
:100A40001092C100E0914F02F091500282E0808349
:100A5000E0914B02F0914C021082E0914D02F09136
:100A60004E0280E1808310925702E0915302F09190
:100A7000540286E08083E0915102F091520280811D
:100A800080618083E0915102F09152028081886000
:100A90008083E0915102F0915202808180688083CE
:100AA000E0915102F091520280818F7D808385E137
:100AB00092E020DE82E192E01DDEE7EDF1E024919C
:100AC000E1E9F1E084918823C1F090E0880F991F5B
:100AD000FC01E85FFE4FC591D491FC01E45CFE4F40
:100AE000A591B4919FB7F8943881822F8095832384
:100AF0008883EC91E22BEC939FBFEBEDF1E0249126
:100B0000E5E9F1E08491882399F090E0880F991F3E
:100B1000FC01E85FFE4FA591B491FC01E45CFE4F3F
:100B2000859194918FB7F894EC91E22BEC938FBF61
:100B300081E0FFDB2ADC892BE1F480E0FADB25DCB5
:100B4000EADD68EB7BE080E090E067DC1EDCE3DD63
:100B500081E0EFDB1ADCDFDD68EB7BE080E090E03A
:100B60005CDC13DCD8DD8BE192E0C4DD82E192E055
:100B7000C1DD6AE070E080E090E04FDC83DDDACF39
:100B8000EFE3F2E01382128288EE93E0A0E0B0E09F
:100B900084839583A683B78384E092E091838083E6
:100BA00085EC90E09587848784EC90E09787868732
:100BB00080EC90E0918B808B81EC90E0938B828B2A
:100BC00082EC90E0958B848B86EC90E0978B868B03
:100BD000118E128E138E148E0895A1E21A2EAA1B66
:100BE000BB1BFD010DC0AA1FBB1FEE1FFF1FA217DD
:100BF000B307E407F50720F0A21BB30BE40BF50BDA
:100C0000661F771F881F991F1A9469F76095709562
:100C1000809590959B01AC01BD01CF010895EE0F29
:100C2000FF1F881F8BBF0790F691E02D199481E07C
:0A0C300090E0F89400C0F894FFCFA4
:100C3A0000000000DB02450274022103A5028302C0
:100C4A0097020D0A00424547494E005F2D2D2D2D72
:100C5A002D2D2D2D2D2D2D2D2D2D2D2D2D2D2D2DBA
:060C6A002D2D2D2D0000D0
:00000001FF
